{
  "_format": "hh-sol-artifact-1",
  "contractName": "PrivateRestaurantRating",
  "sourceName": "contracts/PrivateRestaurantRating.sol",
  "abi": [
    {
      "inputs": [],
      "stateMutability": "nonpayable",
      "type": "constructor"
    },
    {
      "inputs": [],
      "name": "HandlesAlreadySavedForRequestID",
      "type": "error"
    },
    {
      "inputs": [],
      "name": "InvalidKMSSignatures",
      "type": "error"
    },
    {
      "inputs": [],
      "name": "NoHandleFoundForRequestID",
      "type": "error"
    },
    {
      "anonymous": false,
      "inputs": [
        {
          "indexed": true,
          "internalType": "uint256",
          "name": "requestID",
          "type": "uint256"
        }
      ],
      "name": "DecryptionFulfilled",
      "type": "event"
    },
    {
      "anonymous": false,
      "inputs": [
        {
          "indexed": true,
          "internalType": "uint32",
          "name": "restaurantId",
          "type": "uint32"
        },
        {
          "indexed": false,
          "internalType": "uint8",
          "name": "averageRating",
          "type": "uint8"
        },
        {
          "indexed": false,
          "internalType": "uint32",
          "name": "reviewCount",
          "type": "uint32"
        }
      ],
      "name": "RatingSummaryUpdated",
      "type": "event"
    },
    {
      "anonymous": false,
      "inputs": [
        {
          "indexed": true,
          "internalType": "uint32",
          "name": "restaurantId",
          "type": "uint32"
        },
        {
          "indexed": false,
          "internalType": "string",
          "name": "name",
          "type": "string"
        },
        {
          "indexed": true,
          "internalType": "address",
          "name": "owner",
          "type": "address"
        }
      ],
      "name": "RestaurantRegistered",
      "type": "event"
    },
    {
      "anonymous": false,
      "inputs": [
        {
          "indexed": true,
          "internalType": "uint32",
          "name": "reviewId",
          "type": "uint32"
        },
        {
          "indexed": true,
          "internalType": "uint32",
          "name": "restaurantId",
          "type": "uint32"
        },
        {
          "indexed": true,
          "internalType": "address",
          "name": "reviewer",
          "type": "address"
        }
      ],
      "name": "ReviewSubmitted",
      "type": "event"
    },
    {
      "anonymous": false,
      "inputs": [
        {
          "indexed": true,
          "internalType": "uint32",
          "name": "reviewId",
          "type": "uint32"
        },
        {
          "indexed": true,
          "internalType": "uint32",
          "name": "restaurantId",
          "type": "uint32"
        }
      ],
      "name": "ReviewVerified",
      "type": "event"
    },
    {
      "inputs": [
        {
          "internalType": "uint32",
          "name": "_restaurantId",
          "type": "uint32"
        }
      ],
      "name": "calculateAverageRating",
      "outputs": [],
      "stateMutability": "nonpayable",
      "type": "function"
    },
    {
      "inputs": [
        {
          "internalType": "uint32",
          "name": "_reviewId",
          "type": "uint32"
        }
      ],
      "name": "getMyReviewRatings",
      "outputs": [
        {
          "internalType": "euint8",
          "name": "foodQuality",
          "type": "bytes32"
        },
        {
          "internalType": "euint8",
          "name": "service",
          "type": "bytes32"
        },
        {
          "internalType": "euint8",
          "name": "atmosphere",
          "type": "bytes32"
        },
        {
          "internalType": "euint8",
          "name": "priceValue",
          "type": "bytes32"
        },
        {
          "internalType": "euint8",
          "name": "overallRating",
          "type": "bytes32"
        }
      ],
      "stateMutability": "view",
      "type": "function"
    },
    {
      "inputs": [
        {
          "internalType": "uint32",
          "name": "_restaurantId",
          "type": "uint32"
        }
      ],
      "name": "getRestaurant",
      "outputs": [
        {
          "internalType": "string",
          "name": "name",
          "type": "string"
        },
        {
          "internalType": "string",
          "name": "location",
          "type": "string"
        },
        {
          "internalType": "address",
          "name": "restaurantOwner",
          "type": "address"
        },
        {
          "internalType": "bool",
          "name": "isActive",
          "type": "bool"
        },
        {
          "internalType": "uint32",
          "name": "totalReviews",
          "type": "uint32"
        },
        {
          "internalType": "uint256",
          "name": "createdAt",
          "type": "uint256"
        }
      ],
      "stateMutability": "view",
      "type": "function"
    },
    {
      "inputs": [
        {
          "internalType": "uint32",
          "name": "_restaurantId",
          "type": "uint32"
        }
      ],
      "name": "getRestaurantReviews",
      "outputs": [
        {
          "internalType": "uint32[]",
          "name": "",
          "type": "uint32[]"
        }
      ],
      "stateMutability": "view",
      "type": "function"
    },
    {
      "inputs": [
        {
          "internalType": "uint32",
          "name": "_reviewId",
          "type": "uint32"
        }
      ],
      "name": "getReviewInfo",
      "outputs": [
        {
          "internalType": "uint32",
          "name": "restaurantId",
          "type": "uint32"
        },
        {
          "internalType": "address",
          "name": "reviewer",
          "type": "address"
        },
        {
          "internalType": "string",
          "name": "comment",
          "type": "string"
        },
        {
          "internalType": "uint256",
          "name": "timestamp",
          "type": "uint256"
        },
        {
          "internalType": "bool",
          "name": "isVerified",
          "type": "bool"
        }
      ],
      "stateMutability": "view",
      "type": "function"
    },
    {
      "inputs": [],
      "name": "getTotalCounts",
      "outputs": [
        {
          "internalType": "uint32",
          "name": "totalRestaurants",
          "type": "uint32"
        },
        {
          "internalType": "uint32",
          "name": "totalReviews",
          "type": "uint32"
        }
      ],
      "stateMutability": "view",
      "type": "function"
    },
    {
      "inputs": [
        {
          "internalType": "address",
          "name": "_user",
          "type": "address"
        }
      ],
      "name": "getUserReviews",
      "outputs": [
        {
          "internalType": "uint32[]",
          "name": "",
          "type": "uint32[]"
        }
      ],
      "stateMutability": "view",
      "type": "function"
    },
    {
      "inputs": [
        {
          "internalType": "uint32",
          "name": "_restaurantId",
          "type": "uint32"
        },
        {
          "internalType": "address",
          "name": "_user",
          "type": "address"
        }
      ],
      "name": "hasReviewed",
      "outputs": [
        {
          "internalType": "bool",
          "name": "",
          "type": "bool"
        }
      ],
      "stateMutability": "view",
      "type": "function"
    },
    {
      "inputs": [
        {
          "internalType": "uint32",
          "name": "",
          "type": "uint32"
        },
        {
          "internalType": "address",
          "name": "",
          "type": "address"
        }
      ],
      "name": "hasUserReviewed",
      "outputs": [
        {
          "internalType": "bool",
          "name": "",
          "type": "bool"
        }
      ],
      "stateMutability": "view",
      "type": "function"
    },
    {
      "inputs": [],
      "name": "owner",
      "outputs": [
        {
          "internalType": "address",
          "name": "",
          "type": "address"
        }
      ],
      "stateMutability": "view",
      "type": "function"
    },
    {
      "inputs": [
        {
          "internalType": "uint256",
          "name": "requestId",
          "type": "uint256"
        },
        {
          "internalType": "uint32",
          "name": "totalSum",
          "type": "uint32"
        },
        {
          "internalType": "bytes",
          "name": "signatures",
          "type": "bytes"
        }
      ],
      "name": "processAverageRating",
      "outputs": [],
      "stateMutability": "nonpayable",
      "type": "function"
    },
    {
      "inputs": [],
      "name": "protocolId",
      "outputs": [
        {
          "internalType": "uint256",
          "name": "",
          "type": "uint256"
        }
      ],
      "stateMutability": "pure",
      "type": "function"
    },
    {
      "inputs": [
        {
          "internalType": "string",
          "name": "_name",
          "type": "string"
        },
        {
          "internalType": "string",
          "name": "_location",
          "type": "string"
        }
      ],
      "name": "registerRestaurant",
      "outputs": [
        {
          "internalType": "uint32",
          "name": "",
          "type": "uint32"
        }
      ],
      "stateMutability": "nonpayable",
      "type": "function"
    },
    {
      "inputs": [],
      "name": "restaurantCounter",
      "outputs": [
        {
          "internalType": "uint32",
          "name": "",
          "type": "uint32"
        }
      ],
      "stateMutability": "view",
      "type": "function"
    },
    {
      "inputs": [
        {
          "internalType": "uint32",
          "name": "",
          "type": "uint32"
        },
        {
          "internalType": "uint256",
          "name": "",
          "type": "uint256"
        }
      ],
      "name": "restaurantReviews",
      "outputs": [
        {
          "internalType": "uint32",
          "name": "",
          "type": "uint32"
        }
      ],
      "stateMutability": "view",
      "type": "function"
    },
    {
      "inputs": [
        {
          "internalType": "uint32",
          "name": "",
          "type": "uint32"
        }
      ],
      "name": "restaurants",
      "outputs": [
        {
          "internalType": "string",
          "name": "name",
          "type": "string"
        },
        {
          "internalType": "string",
          "name": "location",
          "type": "string"
        },
        {
          "internalType": "address",
          "name": "owner",
          "type": "address"
        },
        {
          "internalType": "bool",
          "name": "isActive",
          "type": "bool"
        },
        {
          "internalType": "uint32",
          "name": "totalReviews",
          "type": "uint32"
        },
        {
          "internalType": "euint32",
          "name": "totalRatingSum",
          "type": "bytes32"
        },
        {
          "internalType": "uint256",
          "name": "createdAt",
          "type": "uint256"
        }
      ],
      "stateMutability": "view",
      "type": "function"
    },
    {
      "inputs": [],
      "name": "reviewCounter",
      "outputs": [
        {
          "internalType": "uint32",
          "name": "",
          "type": "uint32"
        }
      ],
      "stateMutability": "view",
      "type": "function"
    },
    {
      "inputs": [
        {
          "internalType": "uint32",
          "name": "",
          "type": "uint32"
        }
      ],
      "name": "reviews",
      "outputs": [
        {
          "internalType": "uint32",
          "name": "restaurantId",
          "type": "uint32"
        },
        {
          "internalType": "address",
          "name": "reviewer",
          "type": "address"
        },
        {
          "internalType": "euint8",
          "name": "foodQuality",
          "type": "bytes32"
        },
        {
          "internalType": "euint8",
          "name": "service",
          "type": "bytes32"
        },
        {
          "internalType": "euint8",
          "name": "atmosphere",
          "type": "bytes32"
        },
        {
          "internalType": "euint8",
          "name": "priceValue",
          "type": "bytes32"
        },
        {
          "internalType": "euint8",
          "name": "overallRating",
          "type": "bytes32"
        },
        {
          "internalType": "string",
          "name": "comment",
          "type": "string"
        },
        {
          "internalType": "uint256",
          "name": "timestamp",
          "type": "uint256"
        },
        {
          "internalType": "bool",
          "name": "isVerified",
          "type": "bool"
        }
      ],
      "stateMutability": "view",
      "type": "function"
    },
    {
      "inputs": [
        {
          "internalType": "uint32",
          "name": "_restaurantId",
          "type": "uint32"
        },
        {
          "internalType": "uint8",
          "name": "_foodQuality",
          "type": "uint8"
        },
        {
          "internalType": "uint8",
          "name": "_service",
          "type": "uint8"
        },
        {
          "internalType": "uint8",
          "name": "_atmosphere",
          "type": "uint8"
        },
        {
          "internalType": "uint8",
          "name": "_priceValue",
          "type": "uint8"
        },
        {
          "internalType": "uint8",
          "name": "_overallRating",
          "type": "uint8"
        },
        {
          "internalType": "string",
          "name": "_comment",
          "type": "string"
        }
      ],
      "name": "submitReview",
      "outputs": [],
      "stateMutability": "nonpayable",
      "type": "function"
    },
    {
      "inputs": [
        {
          "internalType": "uint32",
          "name": "_restaurantId",
          "type": "uint32"
        }
      ],
      "name": "toggleRestaurantStatus",
      "outputs": [],
      "stateMutability": "nonpayable",
      "type": "function"
    },
    {
      "inputs": [
        {
          "internalType": "address",
          "name": "",
          "type": "address"
        },
        {
          "internalType": "uint256",
          "name": "",
          "type": "uint256"
        }
      ],
      "name": "userReviews",
      "outputs": [
        {
          "internalType": "uint32",
          "name": "",
          "type": "uint32"
        }
      ],
      "stateMutability": "view",
      "type": "function"
    },
    {
      "inputs": [
        {
          "internalType": "uint32",
          "name": "_reviewId",
          "type": "uint32"
        }
      ],
      "name": "verifyReview",
      "outputs": [],
      "stateMutability": "nonpayable",
      "type": "function"
    }
  ],
  "bytecode": "0x608060405234801561001057600080fd5b5061018c6100b060408051608081018252600080825260208201819052918101829052606081019190915250604080516080810182527350157cffd6bbfa2dece204a89ec419c23ef5755d815273cd3ab3bd6bcc0c0bf3e27912a92043e817b1cf69602082015273a02cda4ca3a71d7c46997716f4283aa851c2881291810191909152731364cbbf2cdf5032c47d8226a6f6fbd2afcdacac606082015290565b80517f9e7b61f58c47dc699ac88507c4f5bb9f121c03808c5676a8078fe583e464970080546001600160a01b03199081166001600160a01b039384161790915560208301517f9e7b61f58c47dc699ac88507c4f5bb9f121c03808c5676a8078fe583e46497018054831691841691909117905560408301517f9e7b61f58c47dc699ac88507c4f5bb9f121c03808c5676a8078fe583e46497028054831691841691909117905560608301517f9e7b61f58c47dc699ac88507c4f5bb9f121c03808c5676a8078fe583e46497038054909216921691909117905550565b600080546001600160e01b03191633600160a01b600160e01b0319161790556128b4806101ba6000396000f3fe608060405234801561001057600080fd5b50600436106101425760003560e01c806381dcda38116100b8578063b937b2191161007c578063b937b2191461033f578063baa2464014610364578063cdabca5b14610377578063da1f12ab1461039d578063e168b3a8146103ad578063f47f8c40146103c457600080fd5b806381dcda38146102c45780638229dbc6146102db578063880d4ee8146102ee5780638da5cb5b14610301578063b22553861461032c57600080fd5b80635ad437e31161010a5780635ad437e3146101e957806360afa26f1461022757806361ffee921461023a5780636bbbad121461024d5780637d626987146102765780637e85a17d146102b157600080fd5b8063045af3341461014757806318d0e8b2146101795780631f4ac129146101995780632211a37a146101c15780634ae91a9c146101d6575b600080fd5b6000546040805163ffffffff600160a01b840481168252600160c01b9093049092166020830152015b60405180910390f35b61018c610187366004611f83565b6103e8565b6040516101709190611f9e565b6101ac6101a7366004611fe8565b610480565b60405163ffffffff9091168152602001610170565b6101d46101cf366004612026565b6104c9565b005b6101d46101e4366004612026565b610651565b6102176101f7366004612041565b600560209081526000928352604080842090915290825290205460ff1681565b6040519015158152602001610170565b6101d4610235366004612026565b6106f1565b6101d4610248366004612100565b61086d565b61026061025b366004612026565b6108f1565b6040516101709a999897969594939291906121bb565b610289610284366004612026565b6109da565b604080519586526020860194909452928401919091526060830152608082015260a001610170565b6101ac6102bf366004612228565b610ac6565b6000546101ac90600160a01b900463ffffffff1681565b6102176102e9366004612041565b610ae2565b6101ac6102fc366004612264565b610b16565b600054610314906001600160a01b031681565b6040516001600160a01b039091168152602001610170565b61018c61033a366004612026565b610cd6565b61035261034d366004612026565b610d43565b604051610170969594939291906122c8565b6101d4610372366004612333565b610f0d565b61038a610385366004612026565b611509565b60405161017097969594939291906123d4565b6040516127118152602001610170565b6000546101ac90600160c01b900463ffffffff1681565b6103d76103d2366004612026565b61166a565b604051610170959493929190612433565b6001600160a01b03811660009081526004602090815260409182902080548351818402810184019094528084526060939283018282801561047457602002820191906000526020600020906000905b82829054906101000a900463ffffffff1663ffffffff16815260200190600401906020826003010492830192600103820291508084116104375790505b50505050509050919050565b6004602052816000526040600020818154811061049c57600080fd5b9060005260206000209060089182820401919006600402915091509054906101000a900463ffffffff1681565b60008163ffffffff161180156104f2575060005463ffffffff600160c01b909104811690821611155b6105175760405162461bcd60e51b815260040161050e9061247c565b60405180910390fd5b63ffffffff81166000908152600260205260409020600881015460ff16156105815760405162461bcd60e51b815260206004820152601760248201527f52657669657720616c7265616479207665726966696564000000000000000000604482015260640161050e565b805463ffffffff166000908152600160205260409020600201546001600160a01b03163314806105bb57506000546001600160a01b031633145b6106075760405162461bcd60e51b815260206004820152601860248201527f4e6f7420617574686f72697a656420746f207665726966790000000000000000604482015260640161050e565b60088101805460ff19166001179055805460405163ffffffff918216918416907f332010589fc4bd52c20a1b7547e1da1e142216d21ec08586a5594250f60b3d5890600090a35050565b63ffffffff811660009081526001602052604090206002015481906001600160a01b031633146106ba5760405162461bcd60e51b81526020600482015260146024820152732737ba103932b9ba30bab930b73a1037bbb732b960611b604482015260640161050e565b5063ffffffff166000908152600160205260409020600201805460ff60a01b198116600160a01b9182900460ff1615909102179055565b8060008163ffffffff1611801561071b575060005463ffffffff600160a01b909104811690821611155b6107375760405162461bcd60e51b815260040161050e906124a6565b63ffffffff8116600090815260016020526040902060020154600160a01b900460ff1661079e5760405162461bcd60e51b815260206004820152601560248201527452657374617572616e74206e6f742061637469766560581b604482015260640161050e565b63ffffffff808316600090815260016020526040902060028101549091600160a81b909104166108105760405162461bcd60e51b815260206004820152601760248201527f4e6f207265766965777320746f2063616c63756c617465000000000000000000604482015260640161050e565b6040805160018082528183019092526000916020808301908036833750505060038301549091508160008151811061084a5761084a6124d4565b6020908102919091010152610866816330fff74960e11b61179c565b5050505050565b6040805160e084901b6001600160e01b03191660208201528151600481830301815260249091019091526108a28482846117b1565b60007f39cad2818f6fc09f0ef1ed5085bf6f92b6cc8bd9ba5183e3f1868947c30658696108d0600186612500565b6040805160ff9092168252600060208301520160405180910390a250505050565b6002602081905260009182526040909120805460018201549282015460038301546004840154600585015460068601805463ffffffff871698600160201b9097046001600160a01b031697919061094790612531565b80601f016020809104026020016040519081016040528092919081815260200182805461097390612531565b80156109c05780601f10610995576101008083540402835291602001916109c0565b820191906000526020600020905b8154815290600101906020018083116109a357829003601f168201915b50505050600783015460089093015491929160ff1690508a565b6000806000806000808663ffffffff16118015610a0a575060005463ffffffff600160c01b909104811690871611155b610a265760405162461bcd60e51b815260040161050e9061247c565b63ffffffff861660009081526002602052604090208054600160201b90046001600160a01b03163314610a9b5760405162461bcd60e51b815260206004820152601e60248201527f43616e206f6e6c79207669657720796f7572206f776e20726174696e67730000604482015260640161050e565b6001810154600282015460038301546004840154600590940154929a91995097509195509350915050565b6003602052816000526040600020818154811061049c57600080fd5b63ffffffff821660009081526005602090815260408083206001600160a01b038516845290915290205460ff165b92915050565b60008054600160a01b900463ffffffff16816014610b338361256b565b91906101000a81548163ffffffff021916908363ffffffff160217905550506040518060e00160405280848152602001838152602001336001600160a01b03168152602001600115158152602001600063ffffffff168152602001610b98600061181d565b81524260209182015260008054600160a01b900463ffffffff16815260019091526040902081518190610bcb90826125df565b5060208201516001820190610be090826125df565b50604082810151600283018054606086015160808701516001600160a01b039094166001600160a81b031990921691909117600160a01b91151582021763ffffffff60a81b1916600160a81b63ffffffff948516021790915560a085015160038086019190915560c0909501516004909401939093556000805493909304168252600160205290200154610c7390611830565b506000546040513391600160a01b900463ffffffff16907f1915923a80013db05748c4ba0375348b0d9ccb25c727acce99ce27018626ecba90610cb790879061269f565b60405180910390a35050600054600160a01b900463ffffffff16919050565b63ffffffff8116600090815260036020908152604091829020805483518184028101840190945280845260609392830182828015610474576000918252602091829020805463ffffffff168452908202830192909160049101808411610437575094979650505050505050565b60608060008060008060008763ffffffff16118015610d75575060005463ffffffff600160a01b909104811690881611155b610d915760405162461bcd60e51b815260040161050e906124a6565b63ffffffff8088166000908152600160208190526040909120600281015460048201548254929485948501936001600160a01b0384169360ff600160a01b82041693600160a81b90910490921691908690610deb90612531565b80601f0160208091040260200160405190810160405280929190818152602001828054610e1790612531565b8015610e645780601f10610e3957610100808354040283529160200191610e64565b820191906000526020600020905b815481529060010190602001808311610e4757829003601f168201915b50505050509550848054610e7790612531565b80601f0160208091040260200160405190810160405280929190818152602001828054610ea390612531565b8015610ef05780601f10610ec557610100808354040283529160200191610ef0565b820191906000526020600020905b815481529060010190602001808311610ed357829003601f168201915b505050505094509650965096509650965096505091939550919395565b8660008163ffffffff16118015610f37575060005463ffffffff600160a01b909104811690821611155b610f535760405162461bcd60e51b815260040161050e906124a6565b63ffffffff8116600090815260016020526040902060020154600160a01b900460ff16610fba5760405162461bcd60e51b815260206004820152601560248201527452657374617572616e74206e6f742061637469766560581b604482015260640161050e565b8660018160ff1610158015610fd35750600a8160ff1611155b610fef5760405162461bcd60e51b815260040161050e906126b2565b8660018160ff16101580156110085750600a8160ff1611155b6110245760405162461bcd60e51b815260040161050e906126b2565b8660018160ff161015801561103d5750600a8160ff1611155b6110595760405162461bcd60e51b815260040161050e906126b2565b8660018160ff16101580156110725750600a8160ff1611155b61108e5760405162461bcd60e51b815260040161050e906126b2565b8660018160ff16101580156110a75750600a8160ff1611155b6110c35760405162461bcd60e51b815260040161050e906126b2565b63ffffffff8d16600090815260056020908152604080832033845290915290205460ff16156111425760405162461bcd60e51b815260206004820152602560248201527f5573657220616c726561647920726576696577656420746869732072657374616044820152641d5c985b9d60da1b606482015260840161050e565b63ffffffff8d16600090815260016020526040902060020154336001600160a01b03909116036111ca5760405162461bcd60e51b815260206004820152602d60248201527f52657374617572616e74206f776e65722063616e6e6f7420726576696577206f60448201526c1ddb881c995cdd185d5c985b9d609a1b606482015260840161050e565b60008054600160c01b900463ffffffff169060186111e78361256b565b91906101000a81548163ffffffff021916908363ffffffff160217905550506040518061014001604052808e63ffffffff168152602001336001600160a01b031681526020016112368e611840565b81526020016112448d611840565b81526020016112528c611840565b81526020016112608b611840565b815260200161126e8a611840565b815260208082018a90524260408084019190915260006060938401819052805463ffffffff600160c01b9091048116825260028085529183902086518154958801516001600160a01b0316600160201b026001600160c01b031990961692169190911793909317835590840151600183015591830151918101919091556080820151600382015560a0820151600482015560c0820151600582015560e0820151600682019061131d90826125df565b506101008201516007820155610120909101516008909101805460ff191691151591909117905563ffffffff8d811660009081526001602052604090206002018054600160a81b90049091169060156113758361256b565b91906101000a81548163ffffffff021916908363ffffffff160217905550506113cb600160008f63ffffffff1663ffffffff168152602001908152602001600020600301546113c68a60ff1661181d565b611850565b63ffffffff808f1660008181526001602081815260408084206003908101979097559581528583208354815480850183559185528285206008808404909101805460046007958616810261010090810a600160c01b968790048d168102908d021990931692909217909255338089528287528b892089548154808b018355918b52888b2095820490950180549190971690930290910a928490048a168302928a021990911691909117909255948452600582528684209084529052938120805460ff191690941790935591546114a4929004168e611882565b336001600160a01b03168d63ffffffff16600060189054906101000a900463ffffffff1663ffffffff167f5b4f518fe90655d80dcf0e7a09af5bf23d73624dd0f0563f7834a05496f7b11f60405160405180910390a450505050505050505050505050565b60016020526000908152604090208054819061152490612531565b80601f016020809104026020016040519081016040528092919081815260200182805461155090612531565b801561159d5780601f106115725761010080835404028352916020019161159d565b820191906000526020600020905b81548152906001019060200180831161158057829003601f168201915b5050505050908060010180546115b290612531565b80601f01602080910402602001604051908101604052809291908181526020018280546115de90612531565b801561162b5780601f106116005761010080835404028352916020019161162b565b820191906000526020600020905b81548152906001019060200180831161160e57829003601f168201915b505050506002830154600384015460049094015492936001600160a01b03821693600160a01b830460ff169350600160a81b90920463ffffffff169187565b600080606060008060008663ffffffff1611801561169b575060005463ffffffff600160c01b909104811690871611155b6116b75760405162461bcd60e51b815260040161050e9061247c565b63ffffffff86811660009081526002602052604090208054600782015460088301546006840180549495841694600160201b9094046001600160a01b03169390929160ff1690839061170890612531565b80601f016020809104026020016040519081016040528092919081815260200182805461173490612531565b80156117815780601f1061175657610100808354040283529160200191611781565b820191906000526020600020905b81548152906001019060200180831161176457829003601f168201915b50505050509250955095509550955095505091939590929450565b60006117aa838360006119b0565b9392505050565b60006117bc84611ad6565b905060006117cb828585611bab565b9050806117eb5760405163cf6c44e960e01b815260040160405180910390fd5b60405185907f1af0453083661051f6e56e5c070792320652e612154bf9af8637bb1e7655b99d90600090a25050505050565b6000610b108263ffffffff166004611c8b565b600061183c8230611d3a565b5090565b6000610b108260ff166002611c8b565b60008261186457611861600061181d565b92505b8161187657611873600061181d565b91505b6117aa83836000611db7565b63ffffffff8216600090815260026020526040902060018101546118a590611830565b506118b38160020154611830565b506118c18160030154611830565b506118cf8160040154611830565b506118dd8160050154611830565b5063ffffffff821660009081526001602052604090206003015461190090611830565b50600181015481546119229190600160201b90046001600160a01b0316611e73565b50600281015481546119449190600160201b90046001600160a01b0316611e73565b50600381015481546119669190600160201b90046001600160a01b0316611e73565b50600481015481546119889190600160201b90046001600160a01b0316611e73565b50600581015481546119aa9190600160201b90046001600160a01b0316611e73565b50505050565b7f878245876662ba28a480c5ea71726db859fb50222b0a3d7cbbc21cfa336faf00805460008051602061285f8339815191528054604051637d6e912360e11b81529293926001600160a01b039091169063fadd224690611a14908990600401612725565b600060405180830381600087803b158015611a2e57600080fd5b505af1158015611a42573d6000803e3d6000fd5b5050506002820154604051633263b83b60e01b81526001600160a01b039091169150633263b83b908690611a7e9087908b908b90600401612738565b6000604051808303818588803b158015611a9757600080fd5b505af1158015611aab573d6000803e3d6000fd5b5050505050611aba8387611e86565b8154826000611ac88361276a565b919050555050509392505050565b60008181527f878245876662ba28a480c5ea71726db859fb50222b0a3d7cbbc21cfa336faf0160205260408120546060917f878245876662ba28a480c5ea71726db859fb50222b0a3d7cbbc21cfa336faf00919003611b485760405163d66ca67560e01b815260040160405180910390fd5b600083815260018201602090815260409182902080548351818402810184019094528084529091830182828015611b9e57602002820191906000526020600020905b815481526020019060010190808311611b8a575b5050505050915050919050565b60008083516020611bbc9190612783565b611bc7906020612783565b905060008482604051602001611bde929190612796565b60405160208183030381529060405290506000611c0660008051602061285f83398151915290565b60038101546040516378542ead60e01b81529192506001600160a01b0316906378542ead90611c3d908a9086908a906004016127b8565b6020604051808303816000875af1158015611c5c573d6000803e3d6000fd5b505050506040513d601f19601f82011682018060405250810190611c8091906127f1565b979650505050505050565b7f9e7b61f58c47dc699ac88507c4f5bb9f121c03808c5676a8078fe583e464970154604051639cd07acb60e01b815260009160008051602061285f833981519152916001600160a01b0390911690639cd07acb90611cef9087908790600401612813565b6020604051808303816000875af1158015611d0e573d6000803e3d6000fd5b505050506040513d601f19601f82011682018060405250810190611d329190612845565b949350505050565b600060008051602061285f8339815191528054604051635ca4b5b160e11b8152600481018690526001600160a01b03858116602483015292935091169063b9496b6290604401600060405180830381600087803b158015611d9a57600080fd5b505af1158015611dae573d6000803e3d6000fd5b50505050505050565b6000808215611dcb5750600160f81b611dcf565b5060005b600060008051602061285f833981519152600181015460405163022f65e760e31b815260048101899052602481018890526001600160f81b0319851660448201529192506001600160a01b03169063117b2f38906064016020604051808303816000875af1158015611e45573d6000803e3d6000fd5b505050506040513d601f19601f82011682018060405250810190611e699190612845565b9695505050505050565b6000611e7f8383611d3a565b5090919050565b60008281527f878245876662ba28a480c5ea71726db859fb50222b0a3d7cbbc21cfa336faf0160205260409020547f878245876662ba28a480c5ea71726db859fb50222b0a3d7cbbc21cfa336faf009015611ef457604051633f06d22b60e01b815260040160405180910390fd5b6000838152600182016020908152604090912083516119aa92850190828054828255906000526020600020908101928215611f4b579160200282015b82811115611f4b578251825591602001919060010190611f30565b5061183c9291505b8082111561183c5760008155600101611f53565b80356001600160a01b0381168114611f7e57600080fd5b919050565b600060208284031215611f9557600080fd5b6117aa82611f67565b6020808252825182820181905260009190848201906040850190845b81811015611fdc57835163ffffffff1683529284019291840191600101611fba565b50909695505050505050565b60008060408385031215611ffb57600080fd5b61200483611f67565b946020939093013593505050565b803563ffffffff81168114611f7e57600080fd5b60006020828403121561203857600080fd5b6117aa82612012565b6000806040838503121561205457600080fd5b61205d83612012565b915061206b60208401611f67565b90509250929050565b634e487b7160e01b600052604160045260246000fd5b600067ffffffffffffffff808411156120a5576120a5612074565b604051601f8501601f19908116603f011681019082821181831017156120cd576120cd612074565b816040528093508581528686860111156120e657600080fd5b858560208301376000602087830101525050509392505050565b60008060006060848603121561211557600080fd5b8335925061212560208501612012565b9150604084013567ffffffffffffffff81111561214157600080fd5b8401601f8101861361215257600080fd5b6121618682356020840161208a565b9150509250925092565b60005b8381101561218657818101518382015260200161216e565b50506000910152565b600081518084526121a781602086016020860161216b565b601f01601f19169290920160200192915050565b600061014063ffffffff8d16835260018060a01b038c1660208401528a60408401528960608401528860808401528760a08401528660c08401528060e08401526122078184018761218f565b61010084019590955250509015156101209091015298975050505050505050565b6000806040838503121561223b57600080fd5b61200483612012565b600082601f83011261225557600080fd5b6117aa8383356020850161208a565b6000806040838503121561227757600080fd5b823567ffffffffffffffff8082111561228f57600080fd5b61229b86838701612244565b935060208501359150808211156122b157600080fd5b506122be85828601612244565b9150509250929050565b60c0815260006122db60c083018961218f565b82810360208401526122ed818961218f565b6001600160a01b039790971660408401525050921515606084015263ffffffff91909116608083015260a09091015292915050565b803560ff81168114611f7e57600080fd5b600080600080600080600060e0888a03121561234e57600080fd5b61235788612012565b965061236560208901612322565b955061237360408901612322565b945061238160608901612322565b935061238f60808901612322565b925061239d60a08901612322565b915060c088013567ffffffffffffffff8111156123b957600080fd5b6123c58a828b01612244565b91505092959891949750929550565b60e0815260006123e760e083018a61218f565b82810360208401526123f9818a61218f565b6001600160a01b039890981660408401525050931515606085015263ffffffff92909216608084015260a083015260c09091015292915050565b63ffffffff861681526001600160a01b038516602082015260a0604082018190526000906124639083018661218f565b6060830194909452509015156080909101529392505050565b60208082526010908201526f14995d9a595dc81b9bdd08199bdd5b9960821b604082015260600190565b60208082526014908201527314995cdd185d5c985b9d081b9bdd08199bdd5b9960621b604082015260600190565b634e487b7160e01b600052603260045260246000fd5b634e487b7160e01b600052601160045260246000fd5b600063ffffffff8084168061252557634e487b7160e01b600052601260045260246000fd5b92169190910492915050565b600181811c9082168061254557607f821691505b60208210810361256557634e487b7160e01b600052602260045260246000fd5b50919050565b600063ffffffff808316818103612584576125846124ea565b6001019392505050565b601f8211156125da576000816000526020600020601f850160051c810160208610156125b75750805b601f850160051c820191505b818110156125d6578281556001016125c3565b5050505b505050565b815167ffffffffffffffff8111156125f9576125f9612074565b61260d816126078454612531565b8461258e565b602080601f831160018114612642576000841561262a5750858301515b600019600386901b1c1916600185901b1785556125d6565b600085815260208120601f198616915b8281101561267157888601518255948401946001909101908401612652565b508582101561268f5787850151600019600388901b60f8161c191681555b5050505050600190811b01905550565b6020815260006117aa602083018461218f565b6020808252601b908201527f526174696e67206d757374206265206265747765656e20312d31300000000000604082015260600190565b60008151808452602080850194506020840160005b8381101561271a578151875295820195908201906001016126fe565b509495945050505050565b6020815260006117aa60208301846126e9565b83815260606020820152600061275160608301856126e9565b905063ffffffff60e01b83166040830152949350505050565b60006001820161277c5761277c6124ea565b5060010190565b80820180821115610b1057610b106124ea565b600083516127a881846020880161216b565b9190910191825250602001919050565b6060815260006127cb60608301866126e9565b82810360208401526127dd818661218f565b90508281036040840152611e69818561218f565b60006020828403121561280357600080fd5b815180151581146117aa57600080fd5b828152604081016054831061283857634e487b7160e01b600052602160045260246000fd5b8260208301529392505050565b60006020828403121561285757600080fd5b505191905056fe9e7b61f58c47dc699ac88507c4f5bb9f121c03808c5676a8078fe583e4649700a2646970667358221220c42b89af770425862cf62f73a867f6f152aaa16942624c3bca2df0897888ce4f64736f6c63430008180033",
  "linkReferences": {},
  "deployedLinkReferences": {}
}